{
  "contractName": "Bookmaker",
  "abi": [
    {
      "inputs": [],
      "stateMutability": "nonpayable",
      "type": "constructor"
    },
    {
      "inputs": [
        {
          "internalType": "uint256",
          "name": "",
          "type": "uint256"
        }
      ],
      "name": "bets",
      "outputs": [
        {
          "internalType": "uint256",
          "name": "amount",
          "type": "uint256"
        },
        {
          "internalType": "uint256",
          "name": "ethDiff",
          "type": "uint256"
        },
        {
          "internalType": "uint256",
          "name": "startDate",
          "type": "uint256"
        },
        {
          "internalType": "int256",
          "name": "startEthPrice",
          "type": "int256"
        },
        {
          "internalType": "uint80",
          "name": "startRoundID",
          "type": "uint80"
        },
        {
          "internalType": "int256",
          "name": "endEthPrice",
          "type": "int256"
        },
        {
          "internalType": "enum Bookmaker.Status",
          "name": "status",
          "type": "uint8"
        },
        {
          "internalType": "enum Bookmaker.Goal",
          "name": "winnerPosition",
          "type": "uint8"
        },
        {
          "internalType": "string",
          "name": "name",
          "type": "string"
        }
      ],
      "stateMutability": "view",
      "type": "function",
      "constant": true
    },
    {
      "inputs": [],
      "name": "owner",
      "outputs": [
        {
          "internalType": "address",
          "name": "",
          "type": "address"
        }
      ],
      "stateMutability": "view",
      "type": "function",
      "constant": true
    },
    {
      "inputs": [],
      "name": "priceFeed",
      "outputs": [
        {
          "internalType": "contract AggregatorV3Interface",
          "name": "",
          "type": "address"
        }
      ],
      "stateMutability": "view",
      "type": "function",
      "constant": true
    },
    {
      "inputs": [],
      "name": "getBetCount",
      "outputs": [
        {
          "internalType": "uint256",
          "name": "",
          "type": "uint256"
        }
      ],
      "stateMutability": "view",
      "type": "function",
      "constant": true
    },
    {
      "inputs": [
        {
          "internalType": "uint256",
          "name": "amount",
          "type": "uint256"
        },
        {
          "internalType": "uint256",
          "name": "ethDiff",
          "type": "uint256"
        },
        {
          "internalType": "string",
          "name": "name",
          "type": "string"
        }
      ],
      "name": "createBet",
      "outputs": [],
      "stateMutability": "nonpayable",
      "type": "function"
    },
    {
      "inputs": [
        {
          "internalType": "uint256",
          "name": "betIndex",
          "type": "uint256"
        },
        {
          "internalType": "enum Bookmaker.Goal",
          "name": "goal",
          "type": "uint8"
        }
      ],
      "name": "subscribe",
      "outputs": [],
      "stateMutability": "payable",
      "type": "function",
      "payable": true
    },
    {
      "inputs": [
        {
          "internalType": "uint256",
          "name": "betIndex",
          "type": "uint256"
        }
      ],
      "name": "ready",
      "outputs": [],
      "stateMutability": "nonpayable",
      "type": "function"
    },
    {
      "inputs": [
        {
          "internalType": "uint80",
          "name": "_roundID",
          "type": "uint80"
        }
      ],
      "name": "getPriceAt",
      "outputs": [
        {
          "internalType": "int256",
          "name": "price",
          "type": "int256"
        },
        {
          "internalType": "uint256",
          "name": "timestamp",
          "type": "uint256"
        },
        {
          "internalType": "uint80",
          "name": "roundID",
          "type": "uint80"
        }
      ],
      "stateMutability": "view",
      "type": "function",
      "constant": true
    },
    {
      "inputs": [],
      "name": "checkBets",
      "outputs": [],
      "stateMutability": "nonpayable",
      "type": "function"
    },
    {
      "inputs": [],
      "name": "getCurrentEthPrice",
      "outputs": [
        {
          "internalType": "int256",
          "name": "",
          "type": "int256"
        }
      ],
      "stateMutability": "view",
      "type": "function",
      "constant": true
    }
  ],
  "bytecode": "0x608060405234801561001057600080fd5b5033600360006101000a81548173ffffffffffffffffffffffffffffffffffffffff021916908373ffffffffffffffffffffffffffffffffffffffff160217905550738a753747a1fa494ec906ce90e9f37563a8af630e600260006101000a81548173ffffffffffffffffffffffffffffffffffffffff021916908373ffffffffffffffffffffffffffffffffffffffff160217905550611b79806100b66000396000f3fe6080604052600436106100915760003560e01c80639125009d116100595780639125009d14610164578063b77b20f91461018f578063b93dab0b146101b8578063f0bd2b9e146101e3578063f3de30441461020c57610091565b80630358b3721461009657806322af00fa146100b2578063649e480d146100f7578063741bef1a1461010e5780638da5cb5b14610139575b600080fd5b6100b060048036038101906100ab9190610ff9565b61024b565b005b3480156100be57600080fd5b506100d960048036038101906100d49190611039565b610451565b6040516100ee9998979695949392919061120b565b60405180910390f35b34801561010357600080fd5b5061010c610557565b005b34801561011a57600080fd5b50610123610841565b604051610130919061131e565b60405180910390f35b34801561014557600080fd5b5061014e610867565b60405161015b919061135a565b60405180910390f35b34801561017057600080fd5b5061017961088d565b6040516101869190611375565b60405180910390f35b34801561019b57600080fd5b506101b660048036038101906101b191906114c5565b61092e565b005b3480156101c457600080fd5b506101cd6109b8565b6040516101da9190611534565b60405180910390f35b3480156101ef57600080fd5b5061020a60048036038101906102059190611039565b6109c1565b005b34801561021857600080fd5b50610233600480360381019061022e919061157b565b610de6565b604051610242939291906115a8565b60405180910390f35b600060016000848152602001908152602001600020905080600001543373ffffffffffffffffffffffffffffffffffffffff163110156102c0576040517f08c379a00000000000000000000000000000000000000000000000000000000081526004016102b79061162b565b60405180910390fd5b80600001543414610306576040517f08c379a00000000000000000000000000000000000000000000000000000000081526004016102fd906116bd565b60405180910390fd5b6000600281111561031a576103196110b3565b5b8160090160009054906101000a900460ff16600281111561033e5761033d6110b3565b5b1461037e576040517f08c379a00000000000000000000000000000000000000000000000000000000081526004016103759061174f565b60405180910390fd5b818160010160003373ffffffffffffffffffffffffffffffffffffffff1673ffffffffffffffffffffffffffffffffffffffff16815260200190815260200160002060006101000a81548160ff021916908360028111156103e2576103e16110b3565b5b021790555080600801339080600181540180825580915050600190039060005260206000200160009091909190916101000a81548173ffffffffffffffffffffffffffffffffffffffff021916908373ffffffffffffffffffffffffffffffffffffffff160217905550505050565b60016020528060005260406000206000915090508060000154908060030154908060040154908060050154908060060160009054906101000a900469ffffffffffffffffffff16908060070154908060090160009054906101000a900460ff169080600b0160009054906101000a900460ff169080600c0180546104d49061179e565b80601f01602080910402602001604051908101604052809291908181526020018280546105009061179e565b801561054d5780601f106105225761010080835404028352916020019161054d565b820191906000526020600020905b81548152906001019060200180831161053057829003601f168201915b5050505050905089565b60005b60005481101561083e5760006001600083815260200190815260200160002090506001600281111561058f5761058e6110b3565b5b8160090160009054906101000a900460ff1660028111156105b3576105b26110b3565b5b141561082a57600081600a01600183600a01805490506105d391906117ff565b815481106105e4576105e3611833565b5b906000526020600020906003020190505b60011561082857600080600061063060018560020160009054906101000a900469ffffffffffffffffffff1661062b9190611862565b610de6565b925092509250600082141561064757505050610828565b84600a0160405180606001604052808481526020018581526020018369ffffffffffffffffffff168152509080600181540180825580915050600190039060005260206000209060030201600090919091909150600082015181600001556020820151816001015560408201518160020160006101000a81548169ffffffffffffffffffff021916908369ffffffffffffffffffff160217905550505084600a01600186600a01805490506106fc91906117ff565b8154811061070d5761070c611833565b5b90600052602060002090600302019350600085600501548461072f91906118a2565b9050856003015481126107a85760028660090160006101000a81548160ff02191690836002811115610764576107636110b3565b5b0217905550838660070181905550600086600b0160006101000a81548160ff0219169083600281111561079a576107996110b3565b5b021790555050505050610828565b8560030154811361081f5760028660090160006101000a81548160ff021916908360028111156107db576107da6110b3565b5b0217905550838660070181905550600186600b0160006101000a81548160ff02191690836002811115610811576108106110b3565b5b021790555050505050610828565b505050506105f5565b505b50808061083690611936565b91505061055a565b50565b600260009054906101000a900473ffffffffffffffffffffffffffffffffffffffff1681565b600360009054906101000a900473ffffffffffffffffffffffffffffffffffffffff1681565b600080600260009054906101000a900473ffffffffffffffffffffffffffffffffffffffff1673ffffffffffffffffffffffffffffffffffffffff1663feaf968c6040518163ffffffff1660e01b815260040160a060405180830381865afa1580156108fd573d6000803e3d6000fd5b505050506040513d601f19601f8201168201806040525081019061092191906119d5565b5050509150508091505090565b60006001600080600081548092919061094690611936565b91905055815260200190815260200160002090508381600001819055508181600c01908051906020019061097b929190610ee7565b5082816003018190555060008160090160006101000a81548160ff021916908360028111156109ad576109ac6110b3565b5b021790555050505050565b60008054905090565b6000600160008381526020019081526020016000209050600060028111156109ec576109eb6110b3565b5b8160010160003373ffffffffffffffffffffffffffffffffffffffff1673ffffffffffffffffffffffffffffffffffffffff16815260200190815260200160002060009054906101000a900460ff166002811115610a4d57610a4c6110b3565b5b1480610acb575060016002811115610a6857610a676110b3565b5b8160010160003373ffffffffffffffffffffffffffffffffffffffff1673ffffffffffffffffffffffffffffffffffffffff16815260200190815260200160002060009054906101000a900460ff166002811115610ac957610ac86110b3565b5b145b610b0a576040517f08c379a0000000000000000000000000000000000000000000000000000000008152600401610b0190611a9c565b60405180910390fd5b60018160020160003373ffffffffffffffffffffffffffffffffffffffff1673ffffffffffffffffffffffffffffffffffffffff16815260200190815260200160002060006101000a81548160ff02191690831515021790555060006001905060005b8260080180549050811015610c2d576000836008018281548110610b9457610b93611833565b5b9060005260206000200160009054906101000a900473ffffffffffffffffffffffffffffffffffffffff1690508360020160008273ffffffffffffffffffffffffffffffffffffffff1673ffffffffffffffffffffffffffffffffffffffff16815260200190815260200160002060009054906101000a900460ff16610c1957600092505b508080610c2590611936565b915050610b6d565b508015610de1576000806000600260009054906101000a900473ffffffffffffffffffffffffffffffffffffffff1673ffffffffffffffffffffffffffffffffffffffff1663feaf968c6040518163ffffffff1660e01b815260040160a060405180830381865afa158015610ca6573d6000803e3d6000fd5b505050506040513d601f19601f82011682018060405250810190610cca91906119d5565b509350509250925080856004018190555060018560090160006101000a81548160ff02191690836002811115610d0357610d026110b3565b5b0217905550818560050181905550828560060160006101000a81548169ffffffffffffffffffff021916908369ffffffffffffffffffff16021790555084600a0160405180606001604052808381526020018481526020018569ffffffffffffffffffff168152509080600181540180825580915050600190039060005260206000209060030201600090919091909150600082015181600001556020820151816001015560408201518160020160006101000a81548169ffffffffffffffffffff021916908369ffffffffffffffffffff16021790555050505050505b505050565b6000806000806000600260009054906101000a900473ffffffffffffffffffffffffffffffffffffffff1673ffffffffffffffffffffffffffffffffffffffff16639a6fc8f5876040518263ffffffff1660e01b8152600401610e499190611abc565b60a060405180830381865afa158015610e66573d6000803e3d6000fd5b505050506040513d601f19601f82011682018060405250810190610e8a91906119d5565b509350509250506000811415610ed5576040517f08c379a0000000000000000000000000000000000000000000000000000000008152600401610ecc90611b23565b60405180910390fd5b81818794509450945050509193909250565b828054610ef39061179e565b90600052602060002090601f016020900481019282610f155760008555610f5c565b82601f10610f2e57805160ff1916838001178555610f5c565b82800160010185558215610f5c579182015b82811115610f5b578251825591602001919060010190610f40565b5b509050610f699190610f6d565b5090565b5b80821115610f86576000816000905550600101610f6e565b5090565b6000604051905090565b600080fd5b600080fd5b6000819050919050565b610fb181610f9e565b8114610fbc57600080fd5b50565b600081359050610fce81610fa8565b92915050565b60038110610fe157600080fd5b50565b600081359050610ff381610fd4565b92915050565b600080604083850312156110105761100f610f94565b5b600061101e85828601610fbf565b925050602061102f85828601610fe4565b9150509250929050565b60006020828403121561104f5761104e610f94565b5b600061105d84828501610fbf565b91505092915050565b61106f81610f9e565b82525050565b6000819050919050565b61108881611075565b82525050565b600069ffffffffffffffffffff82169050919050565b6110ad8161108e565b82525050565b7f4e487b7100000000000000000000000000000000000000000000000000000000600052602160045260246000fd5b600381106110f3576110f26110b3565b5b50565b6000819050611104826110e2565b919050565b6000611114826110f6565b9050919050565b61112481611109565b82525050565b6003811061113b5761113a6110b3565b5b50565b600081905061114c8261112a565b919050565b600061115c8261113e565b9050919050565b61116c81611151565b82525050565b600081519050919050565b600082825260208201905092915050565b60005b838110156111ac578082015181840152602081019050611191565b838111156111bb576000848401525b50505050565b6000601f19601f8301169050919050565b60006111dd82611172565b6111e7818561117d565b93506111f781856020860161118e565b611200816111c1565b840191505092915050565b600061012082019050611221600083018c611066565b61122e602083018b611066565b61123b604083018a611066565b611248606083018961107f565b61125560808301886110a4565b61126260a083018761107f565b61126f60c083018661111b565b61127c60e0830185611163565b81810361010083015261128f81846111d2565b90509a9950505050505050505050565b600073ffffffffffffffffffffffffffffffffffffffff82169050919050565b6000819050919050565b60006112e46112df6112da8461129f565b6112bf565b61129f565b9050919050565b60006112f6826112c9565b9050919050565b6000611308826112eb565b9050919050565b611318816112fd565b82525050565b6000602082019050611333600083018461130f565b92915050565b60006113448261129f565b9050919050565b61135481611339565b82525050565b600060208201905061136f600083018461134b565b92915050565b600060208201905061138a600083018461107f565b92915050565b600080fd5b600080fd5b7f4e487b7100000000000000000000000000000000000000000000000000000000600052604160045260246000fd5b6113d2826111c1565b810181811067ffffffffffffffff821117156113f1576113f061139a565b5b80604052505050565b6000611404610f8a565b905061141082826113c9565b919050565b600067ffffffffffffffff8211156114305761142f61139a565b5b611439826111c1565b9050602081019050919050565b82818337600083830152505050565b600061146861146384611415565b6113fa565b90508281526020810184848401111561148457611483611395565b5b61148f848285611446565b509392505050565b600082601f8301126114ac576114ab611390565b5b81356114bc848260208601611455565b91505092915050565b6000806000606084860312156114de576114dd610f94565b5b60006114ec86828701610fbf565b93505060206114fd86828701610fbf565b925050604084013567ffffffffffffffff81111561151e5761151d610f99565b5b61152a86828701611497565b9150509250925092565b60006020820190506115496000830184611066565b92915050565b6115588161108e565b811461156357600080fd5b50565b6000813590506115758161154f565b92915050565b60006020828403121561159157611590610f94565b5b600061159f84828501611566565b91505092915050565b60006060820190506115bd600083018661107f565b6115ca6020830185611066565b6115d760408301846110a4565b949350505050565b7f596f7520646f6e2774206f776e20656e6f756774682045746865727300000000600082015250565b6000611615601c8361117d565b9150611620826115df565b602082019050919050565b6000602082019050818103600083015261164481611608565b9050919050565b7f416d6f756e742073656e7420646f6573206e6f74206d6174636820726571756960008201527f72656420616d6f756e742e000000000000000000000000000000000000000000602082015250565b60006116a7602b8361117d565b91506116b28261164b565b604082019050919050565b600060208201905081810360008301526116d68161169a565b9050919050565b7f5468697320626574206973206e6f206d6f726520616363657074696e67206e6560008201527f772067616d626c6572732e000000000000000000000000000000000000000000602082015250565b6000611739602b8361117d565b9150611744826116dd565b604082019050919050565b600060208201905081810360008301526117688161172c565b9050919050565b7f4e487b7100000000000000000000000000000000000000000000000000000000600052602260045260246000fd5b600060028204905060018216806117b657607f821691505b602082108114156117ca576117c961176f565b5b50919050565b7f4e487b7100000000000000000000000000000000000000000000000000000000600052601160045260246000fd5b600061180a82610f9e565b915061181583610f9e565b925082821015611828576118276117d0565b5b828203905092915050565b7f4e487b7100000000000000000000000000000000000000000000000000000000600052603260045260246000fd5b600061186d8261108e565b91506118788361108e565b92508269ffffffffffffffffffff03821115611897576118966117d0565b5b828201905092915050565b60006118ad82611075565b91506118b883611075565b9250827f8000000000000000000000000000000000000000000000000000000000000000018212600084121516156118f3576118f26117d0565b5b827f7fffffffffffffffffffffffffffffffffffffffffffffffffffffffffffffff01821360008412161561192b5761192a6117d0565b5b828203905092915050565b600061194182610f9e565b91507fffffffffffffffffffffffffffffffffffffffffffffffffffffffffffffffff821415611974576119736117d0565b5b600182019050919050565b60008151905061198e8161154f565b92915050565b61199d81611075565b81146119a857600080fd5b50565b6000815190506119ba81611994565b92915050565b6000815190506119cf81610fa8565b92915050565b600080600080600060a086880312156119f1576119f0610f94565b5b60006119ff8882890161197f565b9550506020611a10888289016119ab565b9450506040611a21888289016119c0565b9350506060611a32888289016119c0565b9250506080611a438882890161197f565b9150509295509295909350565b7f55736572206d757374207375627363726962652066697273742e000000000000600082015250565b6000611a86601a8361117d565b9150611a9182611a50565b602082019050919050565b60006020820190508181036000830152611ab581611a79565b9050919050565b6000602082019050611ad160008301846110a4565b92915050565b7f5468697320726f756e6420686173206e6f742066696e6973686564207965742e600082015250565b6000611b0d60208361117d565b9150611b1882611ad7565b602082019050919050565b60006020820190508181036000830152611b3c81611b00565b905091905056fea2646970667358221220dabf3498d5b8bdc8f389092dafde8cc61ce120a402504f3ae700686e66ca50d364736f6c634300080b0033",
  "immutableReferences": {},
  "source": "// SPDX-License-Identifier: MIT\npragma solidity ^0.8.0;\n\nimport '@chainlink/contracts/src/v0.8/interfaces/AggregatorV3Interface.sol';\n\ncontract Bookmaker {\n    enum Goal { High, Low, Empty }\n    enum Status { New, Pending, Finished }\n    struct Price {\n        uint256 timestamp;\n        int256 price;\n        uint80 roundID;\n    }\n    struct Bet {\n        uint256 amount;\n        mapping(address => Goal) gamblers;\n        mapping(address => bool) ready;\n        uint256 ethDiff;\n        uint256 startDate;\n        int256 startEthPrice;\n        uint80 startRoundID;\n        int256 endEthPrice;\n        address[] gamblerAddresses;\n        Status status;\n        Price[] history;\n        Goal winnerPosition;\n        string name;\n    }\n\n    uint256 numBets;\n    mapping(uint256 => Bet) public bets;\n    AggregatorV3Interface public priceFeed;\n\n    address public owner;\n\n    constructor() {\n        owner = msg.sender;\n        priceFeed = AggregatorV3Interface(\n            0x8A753747A1Fa494EC906cE90E9f37563A8AF630e\n        );\n    }\n\n    modifier onlyOwner {\n        require(msg.sender == owner, 'Only owner can call this function.');\n        _;\n    }\n\n    function getBetCount() public view returns (uint256) {\n        return numBets;\n    }\n\n    function createBet(\n        uint256 amount,\n        uint256 ethDiff,\n        string memory name\n    ) public {\n        Bet storage bet = bets[numBets++];\n\n        bet.amount = amount;\n        bet.name = name;\n        bet.ethDiff = ethDiff;\n        bet.status = Status.New;\n    }\n\n    function subscribe(uint256 betIndex, Goal goal) public payable {\n        Bet storage bet = bets[betIndex];\n        require(\n            address(msg.sender).balance >= bet.amount,\n            \"You don't own enougth Ethers\"\n        );\n        require(\n            msg.value == bet.amount,\n            'Amount sent does not match required amount.'\n        );\n        require(\n            bet.status == Status.New,\n            'This bet is no more accepting new gamblers.'\n        );\n        bet.gamblers[msg.sender] = goal;\n        bet.gamblerAddresses.push(msg.sender);\n    }\n\n    function ready(uint256 betIndex) public {\n        Bet storage bet = bets[betIndex];\n        require(\n            bet.gamblers[msg.sender] == Goal.High ||\n                bet.gamblers[msg.sender] == Goal.Low,\n            'User must subscribe first.'\n        );\n        bet.ready[msg.sender] = true;\n        bool allReady = true;\n        for (uint256 i = 0; i < bet.gamblerAddresses.length; i++) {\n            address cur = bet.gamblerAddresses[i];\n            if (!bet.ready[cur]) {\n                allReady = false;\n            }\n        }\n        if (allReady) {\n            (uint80 roundID, int256 price, , uint256 timestamp, ) = priceFeed\n                .latestRoundData();\n            bet.startDate = timestamp;\n            bet.status = Status.Pending;\n            bet.startEthPrice = price;\n            bet.startRoundID = roundID;\n            bet.history.push(\n                Price({ timestamp: timestamp, price: price, roundID: roundID })\n            );\n        }\n    }\n\n    function getPriceAt(uint80 _roundID)\n        public\n        view\n        returns (\n            int256 price,\n            uint256 timestamp,\n            uint80 roundID\n        )\n    {\n        (, int256 _price, , uint256 _timestamp, ) = priceFeed.getRoundData(\n            _roundID\n        );\n        require(_timestamp != 0, 'This round has not finished yet.');\n        return (_price, _timestamp, _roundID);\n    }\n\n    function checkBets() public {\n        for (uint256 i = 0; i < numBets; i++) {\n            Bet storage bet = bets[i];\n            if (bet.status == Status.Pending) {\n                Price storage lastPrice = bet.history[bet.history.length - 1];\n                while (true) {\n                    (\n                        int256 nextPrice,\n                        uint256 nextTimestamp,\n                        uint80 nextRoundID\n                    ) = getPriceAt(lastPrice.roundID + 1);\n                    if (nextTimestamp == 0) {\n                        break;\n                    }\n                    bet.history.push(\n                        Price({\n                            price: nextPrice,\n                            timestamp: nextTimestamp,\n                            roundID: nextRoundID\n                        })\n                    );\n                    lastPrice = bet.history[bet.history.length - 1];\n                    int256 diff = nextPrice - int256(bet.startEthPrice);\n                    if (diff >= int256(bet.ethDiff)) {\n                        bet.status = Status.Finished;\n                        bet.endEthPrice = nextPrice;\n                        bet.winnerPosition = Goal.High;\n                        break;\n                    } else if (diff <= int256(bet.ethDiff)) {\n                        bet.status = Status.Finished;\n                        bet.endEthPrice = nextPrice;\n                        bet.winnerPosition = Goal.Low;\n                        break;\n                    }\n                }\n            }\n        }\n    }\n\n    function getCurrentEthPrice() public view returns (int256) {\n        (, int256 price, , , ) = priceFeed.latestRoundData();\n        return price;\n    }\n}\n",
  "sourcePath": "/home/leon/dev/crypto/web3-portfolio/contracts/Bookmaker.sol",
  "compiler": {
    "name": "solc",
    "version": "0.8.11+commit.d7f03943.Emscripten.clang"
  },
  "schemaVersion": "3.4.3",
  "updatedAt": "2021-12-27T14:20:55.831Z",
  "networkType": "ethereum",
  "devdoc": {
    "kind": "dev",
    "methods": {},
    "version": 1
  },
  "userdoc": {
    "kind": "user",
    "methods": {},
    "version": 1
  }
}