{
  "contractName": "RocketifyToken",
  "abi": [
    {
      "inputs": [],
      "stateMutability": "nonpayable",
      "type": "constructor"
    },
    {
      "anonymous": false,
      "inputs": [
        {
          "indexed": true,
          "internalType": "address",
          "name": "owner",
          "type": "address"
        },
        {
          "indexed": true,
          "internalType": "address",
          "name": "spender",
          "type": "address"
        },
        {
          "indexed": false,
          "internalType": "uint256",
          "name": "value",
          "type": "uint256"
        }
      ],
      "name": "Approval",
      "type": "event"
    },
    {
      "anonymous": false,
      "inputs": [
        {
          "indexed": true,
          "internalType": "address",
          "name": "from",
          "type": "address"
        },
        {
          "indexed": true,
          "internalType": "address",
          "name": "to",
          "type": "address"
        },
        {
          "indexed": false,
          "internalType": "uint256",
          "name": "value",
          "type": "uint256"
        }
      ],
      "name": "Transfer",
      "type": "event"
    },
    {
      "inputs": [
        {
          "internalType": "address",
          "name": "owner",
          "type": "address"
        },
        {
          "internalType": "address",
          "name": "spender",
          "type": "address"
        }
      ],
      "name": "allowance",
      "outputs": [
        {
          "internalType": "uint256",
          "name": "",
          "type": "uint256"
        }
      ],
      "stateMutability": "view",
      "type": "function",
      "constant": true
    },
    {
      "inputs": [
        {
          "internalType": "address",
          "name": "spender",
          "type": "address"
        },
        {
          "internalType": "uint256",
          "name": "amount",
          "type": "uint256"
        }
      ],
      "name": "approve",
      "outputs": [
        {
          "internalType": "bool",
          "name": "",
          "type": "bool"
        }
      ],
      "stateMutability": "nonpayable",
      "type": "function"
    },
    {
      "inputs": [
        {
          "internalType": "address",
          "name": "account",
          "type": "address"
        }
      ],
      "name": "balanceOf",
      "outputs": [
        {
          "internalType": "uint256",
          "name": "",
          "type": "uint256"
        }
      ],
      "stateMutability": "view",
      "type": "function",
      "constant": true
    },
    {
      "inputs": [
        {
          "internalType": "address",
          "name": "",
          "type": "address"
        }
      ],
      "name": "burnByAddress",
      "outputs": [
        {
          "internalType": "uint256",
          "name": "",
          "type": "uint256"
        }
      ],
      "stateMutability": "view",
      "type": "function",
      "constant": true
    },
    {
      "inputs": [],
      "name": "burnedAmount",
      "outputs": [
        {
          "internalType": "uint256",
          "name": "",
          "type": "uint256"
        }
      ],
      "stateMutability": "view",
      "type": "function",
      "constant": true
    },
    {
      "inputs": [],
      "name": "decimals",
      "outputs": [
        {
          "internalType": "uint8",
          "name": "",
          "type": "uint8"
        }
      ],
      "stateMutability": "view",
      "type": "function",
      "constant": true
    },
    {
      "inputs": [
        {
          "internalType": "address",
          "name": "spender",
          "type": "address"
        },
        {
          "internalType": "uint256",
          "name": "subtractedValue",
          "type": "uint256"
        }
      ],
      "name": "decreaseAllowance",
      "outputs": [
        {
          "internalType": "bool",
          "name": "",
          "type": "bool"
        }
      ],
      "stateMutability": "nonpayable",
      "type": "function"
    },
    {
      "inputs": [
        {
          "internalType": "address",
          "name": "spender",
          "type": "address"
        },
        {
          "internalType": "uint256",
          "name": "addedValue",
          "type": "uint256"
        }
      ],
      "name": "increaseAllowance",
      "outputs": [
        {
          "internalType": "bool",
          "name": "",
          "type": "bool"
        }
      ],
      "stateMutability": "nonpayable",
      "type": "function"
    },
    {
      "inputs": [],
      "name": "name",
      "outputs": [
        {
          "internalType": "string",
          "name": "",
          "type": "string"
        }
      ],
      "stateMutability": "view",
      "type": "function",
      "constant": true
    },
    {
      "inputs": [],
      "name": "symbol",
      "outputs": [
        {
          "internalType": "string",
          "name": "",
          "type": "string"
        }
      ],
      "stateMutability": "view",
      "type": "function",
      "constant": true
    },
    {
      "inputs": [],
      "name": "totalSupply",
      "outputs": [
        {
          "internalType": "uint256",
          "name": "",
          "type": "uint256"
        }
      ],
      "stateMutability": "view",
      "type": "function",
      "constant": true
    },
    {
      "inputs": [
        {
          "internalType": "address",
          "name": "recipient",
          "type": "address"
        },
        {
          "internalType": "uint256",
          "name": "amount",
          "type": "uint256"
        }
      ],
      "name": "transfer",
      "outputs": [
        {
          "internalType": "bool",
          "name": "",
          "type": "bool"
        }
      ],
      "stateMutability": "nonpayable",
      "type": "function"
    },
    {
      "inputs": [
        {
          "internalType": "address",
          "name": "sender",
          "type": "address"
        },
        {
          "internalType": "address",
          "name": "recipient",
          "type": "address"
        },
        {
          "internalType": "uint256",
          "name": "amount",
          "type": "uint256"
        }
      ],
      "name": "transferFrom",
      "outputs": [
        {
          "internalType": "bool",
          "name": "",
          "type": "bool"
        }
      ],
      "stateMutability": "nonpayable",
      "type": "function"
    },
    {
      "inputs": [
        {
          "internalType": "address",
          "name": "",
          "type": "address"
        }
      ],
      "name": "userNames",
      "outputs": [
        {
          "internalType": "string",
          "name": "",
          "type": "string"
        }
      ],
      "stateMutability": "view",
      "type": "function",
      "constant": true
    },
    {
      "inputs": [
        {
          "internalType": "string",
          "name": "userName",
          "type": "string"
        }
      ],
      "name": "setName",
      "outputs": [],
      "stateMutability": "nonpayable",
      "type": "function"
    },
    {
      "inputs": [],
      "name": "redeemWelcome",
      "outputs": [],
      "stateMutability": "nonpayable",
      "type": "function"
    },
    {
      "inputs": [],
      "name": "getMyBalance",
      "outputs": [
        {
          "internalType": "uint256",
          "name": "",
          "type": "uint256"
        }
      ],
      "stateMutability": "view",
      "type": "function",
      "constant": true
    },
    {
      "inputs": [
        {
          "internalType": "uint256",
          "name": "amount",
          "type": "uint256"
        }
      ],
      "name": "burn",
      "outputs": [],
      "stateMutability": "nonpayable",
      "type": "function"
    },
    {
      "inputs": [
        {
          "internalType": "address",
          "name": "addr",
          "type": "address"
        }
      ],
      "name": "getBurnByAddress",
      "outputs": [
        {
          "internalType": "uint256",
          "name": "",
          "type": "uint256"
        }
      ],
      "stateMutability": "view",
      "type": "function",
      "constant": true
    },
    {
      "inputs": [],
      "name": "getAddressCount",
      "outputs": [
        {
          "internalType": "uint256",
          "name": "",
          "type": "uint256"
        }
      ],
      "stateMutability": "view",
      "type": "function",
      "constant": true
    },
    {
      "inputs": [
        {
          "internalType": "uint256",
          "name": "index",
          "type": "uint256"
        }
      ],
      "name": "getAddressByIndex",
      "outputs": [
        {
          "internalType": "address",
          "name": "",
          "type": "address"
        }
      ],
      "stateMutability": "view",
      "type": "function",
      "constant": true
    },
    {
      "inputs": [
        {
          "internalType": "address",
          "name": "to",
          "type": "address"
        },
        {
          "internalType": "uint256",
          "name": "amount",
          "type": "uint256"
        }
      ],
      "name": "transferRocket",
      "outputs": [],
      "stateMutability": "payable",
      "type": "function",
      "payable": true
    }
  ],
  "bytecode": "0x60806040523480156200001157600080fd5b506040518060400160405280600e81526020017f526f636b6574696679546f6b656e0000000000000000000000000000000000008152506040518060400160405280600681526020017f524f434b45540000000000000000000000000000000000000000000000000000815250816003908051906020019062000096929190620002ed565b508060049080519060200190620000af929190620002ed565b505050620000c26200016160201b60201c565b600a620000d0919062000537565b6064620000de919062000588565b600581905550620000f8336005546200016a60201b60201c565b6009339080600181540180825580915050600190039060005260206000200160009091909190916101000a81548173ffffffffffffffffffffffffffffffffffffffff021916908373ffffffffffffffffffffffffffffffffffffffff1602179055506200075c565b60006012905090565b600073ffffffffffffffffffffffffffffffffffffffff168273ffffffffffffffffffffffffffffffffffffffff161415620001dd576040517f08c379a0000000000000000000000000000000000000000000000000000000008152600401620001d4906200064a565b60405180910390fd5b620001f160008383620002e360201b60201c565b80600260008282546200020591906200066c565b92505081905550806000808473ffffffffffffffffffffffffffffffffffffffff1673ffffffffffffffffffffffffffffffffffffffff16815260200190815260200160002060008282546200025c91906200066c565b925050819055508173ffffffffffffffffffffffffffffffffffffffff16600073ffffffffffffffffffffffffffffffffffffffff167fddf252ad1be2c89b69c2b068fc378daa952ba7f163c4a11628f55a4df523b3ef83604051620002c39190620006da565b60405180910390a3620002df60008383620002e860201b60201c565b5050565b505050565b505050565b828054620002fb9062000726565b90600052602060002090601f0160209004810192826200031f57600085556200036b565b82601f106200033a57805160ff19168380011785556200036b565b828001600101855582156200036b579182015b828111156200036a5782518255916020019190600101906200034d565b5b5090506200037a91906200037e565b5090565b5b80821115620003995760008160009055506001016200037f565b5090565b7f4e487b7100000000000000000000000000000000000000000000000000000000600052601160045260246000fd5b60008160011c9050919050565b6000808291508390505b60018511156200042b578086048111156200040357620004026200039d565b5b6001851615620004135780820291505b80810290506200042385620003cc565b9450620003e3565b94509492505050565b60008262000446576001905062000519565b8162000456576000905062000519565b81600181146200046f57600281146200047a57620004b0565b600191505062000519565b60ff8411156200048f576200048e6200039d565b5b8360020a915084821115620004a957620004a86200039d565b5b5062000519565b5060208310610133831016604e8410600b8410161715620004ea5782820a905083811115620004e457620004e36200039d565b5b62000519565b620004f98484846001620003d9565b925090508184048111156200051357620005126200039d565b5b81810290505b9392505050565b6000819050919050565b600060ff82169050919050565b6000620005448262000520565b915062000551836200052a565b9250620005807fffffffffffffffffffffffffffffffffffffffffffffffffffffffffffffffff848462000434565b905092915050565b6000620005958262000520565b9150620005a28362000520565b9250817fffffffffffffffffffffffffffffffffffffffffffffffffffffffffffffffff0483118215151615620005de57620005dd6200039d565b5b828202905092915050565b600082825260208201905092915050565b7f45524332303a206d696e7420746f20746865207a65726f206164647265737300600082015250565b600062000632601f83620005e9565b91506200063f82620005fa565b602082019050919050565b60006020820190508181036000830152620006658162000623565b9050919050565b6000620006798262000520565b9150620006868362000520565b9250827fffffffffffffffffffffffffffffffffffffffffffffffffffffffffffffffff03821115620006be57620006bd6200039d565b5b828201905092915050565b620006d48162000520565b82525050565b6000602082019050620006f16000830184620006c9565b92915050565b7f4e487b7100000000000000000000000000000000000000000000000000000000600052602260045260246000fd5b600060028204905060018216806200073f57607f821691505b60208210811415620007565762000755620006f7565b5b50919050565b61232a806200076c6000396000f3fe6080604052600436106101355760003560e01c80637f281635116100ab578063c47f00271161006f578063c47f002714610469578063cdbb02af14610492578063ce10cf88146104bd578063d584b209146104fa578063d91a5b5d14610511578063dd62ed3e1461054e57610135565b80637f2816351461036b57806395d89b41146103a8578063971c53d4146103d3578063a457c2d7146103ef578063a9059cbb1461042c57610135565b8063313ce567116100fd578063313ce56714610247578063395093511461027257806342966c68146102af5780634c738909146102d857806350e15fdd1461030357806370a082311461032e57610135565b806306fdde031461013a578063095ea7b31461016557806318160ddd146101a257806323a2d298146101cd57806323b872dd1461020a575b600080fd5b34801561014657600080fd5b5061014f61058b565b60405161015c9190611755565b60405180910390f35b34801561017157600080fd5b5061018c6004803603810190610187919061181f565b61061d565b604051610199919061187a565b60405180910390f35b3480156101ae57600080fd5b506101b761063b565b6040516101c491906118a4565b60405180910390f35b3480156101d957600080fd5b506101f460048036038101906101ef91906118bf565b610645565b60405161020191906118a4565b60405180910390f35b34801561021657600080fd5b50610231600480360381019061022c91906118ec565b61065d565b60405161023e919061187a565b60405180910390f35b34801561025357600080fd5b5061025c610755565b604051610269919061195b565b60405180910390f35b34801561027e57600080fd5b506102996004803603810190610294919061181f565b61075e565b6040516102a6919061187a565b60405180910390f35b3480156102bb57600080fd5b506102d660048036038101906102d19190611976565b61080a565b005b3480156102e457600080fd5b506102ed610886565b6040516102fa91906118a4565b60405180910390f35b34801561030f57600080fd5b50610318610896565b60405161032591906118a4565b60405180910390f35b34801561033a57600080fd5b50610355600480360381019061035091906118bf565b61089c565b60405161036291906118a4565b60405180910390f35b34801561037757600080fd5b50610392600480360381019061038d91906118bf565b6108e4565b60405161039f9190611755565b60405180910390f35b3480156103b457600080fd5b506103bd610984565b6040516103ca9190611755565b60405180910390f35b6103ed60048036038101906103e8919061181f565b610a16565b005b3480156103fb57600080fd5b506104166004803603810190610411919061181f565b610ae5565b604051610423919061187a565b60405180910390f35b34801561043857600080fd5b50610453600480360381019061044e919061181f565b610bd0565b604051610460919061187a565b60405180910390f35b34801561047557600080fd5b50610490600480360381019061048b9190611ad8565b610bee565b005b34801561049e57600080fd5b506104a7610c45565b6040516104b491906118a4565b60405180910390f35b3480156104c957600080fd5b506104e460048036038101906104df9190611976565b610c52565b6040516104f19190611b30565b60405180910390f35b34801561050657600080fd5b5061050f610c9a565b005b34801561051d57600080fd5b50610538600480360381019061053391906118bf565b610db4565b60405161054591906118a4565b60405180910390f35b34801561055a57600080fd5b5061057560048036038101906105709190611b4b565b610dfd565b60405161058291906118a4565b60405180910390f35b60606003805461059a90611bba565b80601f01602080910402602001604051908101604052809291908181526020018280546105c690611bba565b80156106135780601f106105e857610100808354040283529160200191610613565b820191906000526020600020905b8154815290600101906020018083116105f657829003601f168201915b5050505050905090565b600061063161062a610e84565b8484610e8c565b6001905092915050565b6000600254905090565b60076020528060005260406000206000915090505481565b600061066a848484611057565b6000600160008673ffffffffffffffffffffffffffffffffffffffff1673ffffffffffffffffffffffffffffffffffffffff16815260200190815260200160002060006106b5610e84565b73ffffffffffffffffffffffffffffffffffffffff1673ffffffffffffffffffffffffffffffffffffffff16815260200190815260200160002054905082811015610735576040517f08c379a000000000000000000000000000000000000000000000000000000000815260040161072c90611c5e565b60405180910390fd5b61074985610741610e84565b858403610e8c565b60019150509392505050565b60006012905090565b600061080061076b610e84565b848460016000610779610e84565b73ffffffffffffffffffffffffffffffffffffffff1673ffffffffffffffffffffffffffffffffffffffff16815260200190815260200160002060008873ffffffffffffffffffffffffffffffffffffffff1673ffffffffffffffffffffffffffffffffffffffff168152602001908152602001600020546107fb9190611cad565b610e8c565b6001905092915050565b61081433826112d8565b80600660008282546108269190611cad565b9250508190555080600760003373ffffffffffffffffffffffffffffffffffffffff1673ffffffffffffffffffffffffffffffffffffffff168152602001908152602001600020600082825461087c9190611cad565b9250508190555050565b60006108913361089c565b905090565b60065481565b60008060008373ffffffffffffffffffffffffffffffffffffffff1673ffffffffffffffffffffffffffffffffffffffff168152602001908152602001600020549050919050565b6008602052806000526040600020600091509050805461090390611bba565b80601f016020809104026020016040519081016040528092919081815260200182805461092f90611bba565b801561097c5780601f106109515761010080835404028352916020019161097c565b820191906000526020600020905b81548152906001019060200180831161095f57829003601f168201915b505050505081565b60606004805461099390611bba565b80601f01602080910402602001604051908101604052809291908181526020018280546109bf90611bba565b8015610a0c5780601f106109e157610100808354040283529160200191610a0c565b820191906000526020600020905b8154815290600101906020018083116109ef57829003601f168201915b5050505050905090565b6000610a218361089c565b148015610a6d57506000600760008473ffffffffffffffffffffffffffffffffffffffff1673ffffffffffffffffffffffffffffffffffffffff16815260200190815260200160002054145b15610ad6576009829080600181540180825580915050600190039060005260206000200160009091909190916101000a81548173ffffffffffffffffffffffffffffffffffffffff021916908373ffffffffffffffffffffffffffffffffffffffff1602179055505b610ae08282610bd0565b505050565b60008060016000610af4610e84565b73ffffffffffffffffffffffffffffffffffffffff1673ffffffffffffffffffffffffffffffffffffffff16815260200190815260200160002060008573ffffffffffffffffffffffffffffffffffffffff1673ffffffffffffffffffffffffffffffffffffffff16815260200190815260200160002054905082811015610bb1576040517f08c379a0000000000000000000000000000000000000000000000000000000008152600401610ba890611d75565b60405180910390fd5b610bc5610bbc610e84565b85858403610e8c565b600191505092915050565b6000610be4610bdd610e84565b8484611057565b6001905092915050565b80600860003373ffffffffffffffffffffffffffffffffffffffff1673ffffffffffffffffffffffffffffffffffffffff1681526020019081526020016000209080519060200190610c41929190611619565b5050565b6000600980549050905090565b600060098281548110610c6857610c67611d95565b5b9060005260206000200160009054906101000a900473ffffffffffffffffffffffffffffffffffffffff169050919050565b600554610ca63361089c565b10610ce6576040517f08c379a0000000000000000000000000000000000000000000000000000000008152600401610cdd90611e36565b60405180910390fd5b6000610cf13361089c565b148015610d3d57506000600760003373ffffffffffffffffffffffffffffffffffffffff1673ffffffffffffffffffffffffffffffffffffffff16815260200190815260200160002054145b15610da6576009339080600181540180825580915050600190039060005260206000200160009091909190916101000a81548173ffffffffffffffffffffffffffffffffffffffff021916908373ffffffffffffffffffffffffffffffffffffffff1602179055505b610db2336005546114af565b565b6000600760008373ffffffffffffffffffffffffffffffffffffffff1673ffffffffffffffffffffffffffffffffffffffff168152602001908152602001600020549050919050565b6000600160008473ffffffffffffffffffffffffffffffffffffffff1673ffffffffffffffffffffffffffffffffffffffff16815260200190815260200160002060008373ffffffffffffffffffffffffffffffffffffffff1673ffffffffffffffffffffffffffffffffffffffff16815260200190815260200160002054905092915050565b600033905090565b600073ffffffffffffffffffffffffffffffffffffffff168373ffffffffffffffffffffffffffffffffffffffff161415610efc576040517f08c379a0000000000000000000000000000000000000000000000000000000008152600401610ef390611ec8565b60405180910390fd5b600073ffffffffffffffffffffffffffffffffffffffff168273ffffffffffffffffffffffffffffffffffffffff161415610f6c576040517f08c379a0000000000000000000000000000000000000000000000000000000008152600401610f6390611f5a565b60405180910390fd5b80600160008573ffffffffffffffffffffffffffffffffffffffff1673ffffffffffffffffffffffffffffffffffffffff16815260200190815260200160002060008473ffffffffffffffffffffffffffffffffffffffff1673ffffffffffffffffffffffffffffffffffffffff168152602001908152602001600020819055508173ffffffffffffffffffffffffffffffffffffffff168373ffffffffffffffffffffffffffffffffffffffff167f8c5be1e5ebec7d5bd14f71427d1e84f3dd0314c0f7b2291e5b200ac8c7c3b9258360405161104a91906118a4565b60405180910390a3505050565b600073ffffffffffffffffffffffffffffffffffffffff168373ffffffffffffffffffffffffffffffffffffffff1614156110c7576040517f08c379a00000000000000000000000000000000000000000000000000000000081526004016110be90611fec565b60405180910390fd5b600073ffffffffffffffffffffffffffffffffffffffff168273ffffffffffffffffffffffffffffffffffffffff161415611137576040517f08c379a000000000000000000000000000000000000000000000000000000000815260040161112e9061207e565b60405180910390fd5b61114283838361160f565b60008060008573ffffffffffffffffffffffffffffffffffffffff1673ffffffffffffffffffffffffffffffffffffffff168152602001908152602001600020549050818110156111c8576040517f08c379a00000000000000000000000000000000000000000000000000000000081526004016111bf90612110565b60405180910390fd5b8181036000808673ffffffffffffffffffffffffffffffffffffffff1673ffffffffffffffffffffffffffffffffffffffff16815260200190815260200160002081905550816000808573ffffffffffffffffffffffffffffffffffffffff1673ffffffffffffffffffffffffffffffffffffffff168152602001908152602001600020600082825461125b9190611cad565b925050819055508273ffffffffffffffffffffffffffffffffffffffff168473ffffffffffffffffffffffffffffffffffffffff167fddf252ad1be2c89b69c2b068fc378daa952ba7f163c4a11628f55a4df523b3ef846040516112bf91906118a4565b60405180910390a36112d2848484611614565b50505050565b600073ffffffffffffffffffffffffffffffffffffffff168273ffffffffffffffffffffffffffffffffffffffff161415611348576040517f08c379a000000000000000000000000000000000000000000000000000000000815260040161133f906121a2565b60405180910390fd5b6113548260008361160f565b60008060008473ffffffffffffffffffffffffffffffffffffffff1673ffffffffffffffffffffffffffffffffffffffff168152602001908152602001600020549050818110156113da576040517f08c379a00000000000000000000000000000000000000000000000000000000081526004016113d190612234565b60405180910390fd5b8181036000808573ffffffffffffffffffffffffffffffffffffffff1673ffffffffffffffffffffffffffffffffffffffff1681526020019081526020016000208190555081600260008282546114319190612254565b92505081905550600073ffffffffffffffffffffffffffffffffffffffff168373ffffffffffffffffffffffffffffffffffffffff167fddf252ad1be2c89b69c2b068fc378daa952ba7f163c4a11628f55a4df523b3ef8460405161149691906118a4565b60405180910390a36114aa83600084611614565b505050565b600073ffffffffffffffffffffffffffffffffffffffff168273ffffffffffffffffffffffffffffffffffffffff16141561151f576040517f08c379a0000000000000000000000000000000000000000000000000000000008152600401611516906122d4565b60405180910390fd5b61152b6000838361160f565b806002600082825461153d9190611cad565b92505081905550806000808473ffffffffffffffffffffffffffffffffffffffff1673ffffffffffffffffffffffffffffffffffffffff16815260200190815260200160002060008282546115929190611cad565b925050819055508173ffffffffffffffffffffffffffffffffffffffff16600073ffffffffffffffffffffffffffffffffffffffff167fddf252ad1be2c89b69c2b068fc378daa952ba7f163c4a11628f55a4df523b3ef836040516115f791906118a4565b60405180910390a361160b60008383611614565b5050565b505050565b505050565b82805461162590611bba565b90600052602060002090601f016020900481019282611647576000855561168e565b82601f1061166057805160ff191683800117855561168e565b8280016001018555821561168e579182015b8281111561168d578251825591602001919060010190611672565b5b50905061169b919061169f565b5090565b5b808211156116b85760008160009055506001016116a0565b5090565b600081519050919050565b600082825260208201905092915050565b60005b838110156116f65780820151818401526020810190506116db565b83811115611705576000848401525b50505050565b6000601f19601f8301169050919050565b6000611727826116bc565b61173181856116c7565b93506117418185602086016116d8565b61174a8161170b565b840191505092915050565b6000602082019050818103600083015261176f818461171c565b905092915050565b6000604051905090565b600080fd5b600080fd5b600073ffffffffffffffffffffffffffffffffffffffff82169050919050565b60006117b68261178b565b9050919050565b6117c6816117ab565b81146117d157600080fd5b50565b6000813590506117e3816117bd565b92915050565b6000819050919050565b6117fc816117e9565b811461180757600080fd5b50565b600081359050611819816117f3565b92915050565b6000806040838503121561183657611835611781565b5b6000611844858286016117d4565b92505060206118558582860161180a565b9150509250929050565b60008115159050919050565b6118748161185f565b82525050565b600060208201905061188f600083018461186b565b92915050565b61189e816117e9565b82525050565b60006020820190506118b96000830184611895565b92915050565b6000602082840312156118d5576118d4611781565b5b60006118e3848285016117d4565b91505092915050565b60008060006060848603121561190557611904611781565b5b6000611913868287016117d4565b9350506020611924868287016117d4565b92505060406119358682870161180a565b9150509250925092565b600060ff82169050919050565b6119558161193f565b82525050565b6000602082019050611970600083018461194c565b92915050565b60006020828403121561198c5761198b611781565b5b600061199a8482850161180a565b91505092915050565b600080fd5b600080fd5b7f4e487b7100000000000000000000000000000000000000000000000000000000600052604160045260246000fd5b6119e58261170b565b810181811067ffffffffffffffff82111715611a0457611a036119ad565b5b80604052505050565b6000611a17611777565b9050611a2382826119dc565b919050565b600067ffffffffffffffff821115611a4357611a426119ad565b5b611a4c8261170b565b9050602081019050919050565b82818337600083830152505050565b6000611a7b611a7684611a28565b611a0d565b905082815260208101848484011115611a9757611a966119a8565b5b611aa2848285611a59565b509392505050565b600082601f830112611abf57611abe6119a3565b5b8135611acf848260208601611a68565b91505092915050565b600060208284031215611aee57611aed611781565b5b600082013567ffffffffffffffff811115611b0c57611b0b611786565b5b611b1884828501611aaa565b91505092915050565b611b2a816117ab565b82525050565b6000602082019050611b456000830184611b21565b92915050565b60008060408385031215611b6257611b61611781565b5b6000611b70858286016117d4565b9250506020611b81858286016117d4565b9150509250929050565b7f4e487b7100000000000000000000000000000000000000000000000000000000600052602260045260246000fd5b60006002820490506001821680611bd257607f821691505b60208210811415611be657611be5611b8b565b5b50919050565b7f45524332303a207472616e7366657220616d6f756e742065786365656473206160008201527f6c6c6f77616e6365000000000000000000000000000000000000000000000000602082015250565b6000611c486028836116c7565b9150611c5382611bec565b604082019050919050565b60006020820190508181036000830152611c7781611c3b565b9050919050565b7f4e487b7100000000000000000000000000000000000000000000000000000000600052601160045260246000fd5b6000611cb8826117e9565b9150611cc3836117e9565b9250827fffffffffffffffffffffffffffffffffffffffffffffffffffffffffffffffff03821115611cf857611cf7611c7e565b5b828201905092915050565b7f45524332303a2064656372656173656420616c6c6f77616e63652062656c6f7760008201527f207a65726f000000000000000000000000000000000000000000000000000000602082015250565b6000611d5f6025836116c7565b9150611d6a82611d03565b604082019050919050565b60006020820190508181036000830152611d8e81611d52565b9050919050565b7f4e487b7100000000000000000000000000000000000000000000000000000000600052603260045260246000fd5b7f596f7520616c72656164792072656465656d656420616e64206e65766572207360008201527f70656e7400000000000000000000000000000000000000000000000000000000602082015250565b6000611e206024836116c7565b9150611e2b82611dc4565b604082019050919050565b60006020820190508181036000830152611e4f81611e13565b9050919050565b7f45524332303a20617070726f76652066726f6d20746865207a65726f2061646460008201527f7265737300000000000000000000000000000000000000000000000000000000602082015250565b6000611eb26024836116c7565b9150611ebd82611e56565b604082019050919050565b60006020820190508181036000830152611ee181611ea5565b9050919050565b7f45524332303a20617070726f766520746f20746865207a65726f20616464726560008201527f7373000000000000000000000000000000000000000000000000000000000000602082015250565b6000611f446022836116c7565b9150611f4f82611ee8565b604082019050919050565b60006020820190508181036000830152611f7381611f37565b9050919050565b7f45524332303a207472616e736665722066726f6d20746865207a65726f20616460008201527f6472657373000000000000000000000000000000000000000000000000000000602082015250565b6000611fd66025836116c7565b9150611fe182611f7a565b604082019050919050565b6000602082019050818103600083015261200581611fc9565b9050919050565b7f45524332303a207472616e7366657220746f20746865207a65726f206164647260008201527f6573730000000000000000000000000000000000000000000000000000000000602082015250565b60006120686023836116c7565b91506120738261200c565b604082019050919050565b600060208201905081810360008301526120978161205b565b9050919050565b7f45524332303a207472616e7366657220616d6f756e742065786365656473206260008201527f616c616e63650000000000000000000000000000000000000000000000000000602082015250565b60006120fa6026836116c7565b91506121058261209e565b604082019050919050565b60006020820190508181036000830152612129816120ed565b9050919050565b7f45524332303a206275726e2066726f6d20746865207a65726f2061646472657360008201527f7300000000000000000000000000000000000000000000000000000000000000602082015250565b600061218c6021836116c7565b915061219782612130565b604082019050919050565b600060208201905081810360008301526121bb8161217f565b9050919050565b7f45524332303a206275726e20616d6f756e7420657863656564732062616c616e60008201527f6365000000000000000000000000000000000000000000000000000000000000602082015250565b600061221e6022836116c7565b9150612229826121c2565b604082019050919050565b6000602082019050818103600083015261224d81612211565b9050919050565b600061225f826117e9565b915061226a836117e9565b92508282101561227d5761227c611c7e565b5b828203905092915050565b7f45524332303a206d696e7420746f20746865207a65726f206164647265737300600082015250565b60006122be601f836116c7565b91506122c982612288565b602082019050919050565b600060208201905081810360008301526122ed816122b1565b905091905056fea26469706673582212209bf22facfdbe251733667b095b404c249668f17edeebf11bac546b2f22d34fd964736f6c634300080a0033",
  "immutableReferences": {},
  "source": "// SPDX-License-Identifier: MIT\npragma solidity ^0.8.0;\n\nimport \"@openzeppelin/contracts/token/ERC20/ERC20.sol\";\n\ncontract RocketifyToken is ERC20 {\n    uint256 INITIAL_SUPPLY;\n    uint256 public burnedAmount;\n    mapping(address => uint256) public burnByAddress;\n    mapping(address => string) public userNames;\n    address[] allAddresses;\n\n    constructor() ERC20(\"RocketifyToken\", 'ROCKET') {\n      INITIAL_SUPPLY = 100 * 10 ** decimals();\n      _mint(msg.sender, INITIAL_SUPPLY);\n      allAddresses.push(msg.sender);\n    }\n\n    function setName(string memory userName) public {\n      userNames[msg.sender] = userName;\n    }\n\n    function redeemWelcome() public {\n      require(balanceOf( msg.sender ) < INITIAL_SUPPLY, \"You already redeemed and never spent\");\n      if (balanceOf(msg.sender) == 0 && burnByAddress[msg.sender] == 0) {\n        allAddresses.push(msg.sender);\n      }\n      _mint(msg.sender, INITIAL_SUPPLY);\n    }\n\n    function getMyBalance() public view returns (uint256) {\n      return balanceOf(msg.sender);\n    }\n\n    function burn(uint256 amount) public {\n      _burn(msg.sender, amount);\n      burnedAmount  += amount;\n      burnByAddress[msg.sender] += amount;\n    }\n\n    function getBurnByAddress(address addr) public view returns (uint256) {\n      return burnByAddress[addr];\n    }\n\n    function getAddressCount() public view returns (uint256) {\n      return allAddresses.length;\n    }\n\n    function getAddressByIndex(uint256 index) public view returns (address) {\n      return allAddresses[index];\n    }\n\n    function transferRocket(address to, uint256 amount) public payable {\n      if (balanceOf(to) == 0 && burnByAddress[to] == 0) {\n        allAddresses.push(to);\n      }\n      transfer(to, amount);\n    }\n}\n",
  "sourcePath": "/home/leon/dev/crypto/web3-portfolio/contracts/RocketifyToken.sol",
  "compiler": {
    "name": "solc",
    "version": "0.8.10+commit.fc410830.Emscripten.clang"
  },
  "schemaVersion": "3.4.3",
  "updatedAt": "2021-12-20T12:04:45.559Z",
  "networkType": "ethereum",
  "devdoc": {
    "kind": "dev",
    "methods": {
      "allowance(address,address)": {
        "details": "See {IERC20-allowance}."
      },
      "approve(address,uint256)": {
        "details": "See {IERC20-approve}. Requirements: - `spender` cannot be the zero address."
      },
      "balanceOf(address)": {
        "details": "See {IERC20-balanceOf}."
      },
      "decimals()": {
        "details": "Returns the number of decimals used to get its user representation. For example, if `decimals` equals `2`, a balance of `505` tokens should be displayed to a user as `5.05` (`505 / 10 ** 2`). Tokens usually opt for a value of 18, imitating the relationship between Ether and Wei. This is the value {ERC20} uses, unless this function is overridden; NOTE: This information is only used for _display_ purposes: it in no way affects any of the arithmetic of the contract, including {IERC20-balanceOf} and {IERC20-transfer}."
      },
      "decreaseAllowance(address,uint256)": {
        "details": "Atomically decreases the allowance granted to `spender` by the caller. This is an alternative to {approve} that can be used as a mitigation for problems described in {IERC20-approve}. Emits an {Approval} event indicating the updated allowance. Requirements: - `spender` cannot be the zero address. - `spender` must have allowance for the caller of at least `subtractedValue`."
      },
      "increaseAllowance(address,uint256)": {
        "details": "Atomically increases the allowance granted to `spender` by the caller. This is an alternative to {approve} that can be used as a mitigation for problems described in {IERC20-approve}. Emits an {Approval} event indicating the updated allowance. Requirements: - `spender` cannot be the zero address."
      },
      "name()": {
        "details": "Returns the name of the token."
      },
      "symbol()": {
        "details": "Returns the symbol of the token, usually a shorter version of the name."
      },
      "totalSupply()": {
        "details": "See {IERC20-totalSupply}."
      },
      "transfer(address,uint256)": {
        "details": "See {IERC20-transfer}. Requirements: - `recipient` cannot be the zero address. - the caller must have a balance of at least `amount`."
      },
      "transferFrom(address,address,uint256)": {
        "details": "See {IERC20-transferFrom}. Emits an {Approval} event indicating the updated allowance. This is not required by the EIP. See the note at the beginning of {ERC20}. Requirements: - `sender` and `recipient` cannot be the zero address. - `sender` must have a balance of at least `amount`. - the caller must have allowance for ``sender``'s tokens of at least `amount`."
      }
    },
    "version": 1
  },
  "userdoc": {
    "kind": "user",
    "methods": {},
    "version": 1
  }
}